{"txid":"7258ebf6d45f13d46024ed00e5c21937a6e54f6a0f88afa96156ee4a6c4b667d","block_height":937337,"block_hash":"00000000000000000001035b021b73e910aaa362425a961ebcffff9c322169ea","raw_hex":"0200000000010158b8e4558f95e2efb1f9f2db05855bf23b26faa6d59ad46f3882400276a265900100000000fdffffff0200000000000000003b6a39434f47008320ab7cc763c9d3a3c6242fede3f4f2e10612759bd47331e12be4fcf483646201ed495c1face9da3c7028519dbb36576c37f90e560c11040000000000160014ed495c1face9da3c7028519dbb36576c37f90e56024730440220525d00471efb12e55fffb8f3a73b1719c306a0377a763a62193de434d03321b902200acd04d5c5789b0fc87baef5cf122808d75a5d650cdafc15382014839c90bc2c0121037fc008d03bcbb707a256518740caccabf2a0cd5323a99920a463bd3ca8a1dd5300000000","treasury_scriptpubkey":"0014ed495c1face9da3c7028519dbb36576c37f90e56","treasury_address":"bc1qa4y4c8ava8drcupg2xwmkdjhdsmljrjk5ejp0t"}